:100000002FC1000057C1000055C1000053C10000BE
:1000100051C100004FC100004DC100004BC10000A4
:1000200049C1000047C100000C945B880C94D8883B
:1000300041C100003FC100003DC100003BC10000C4
:1000400039C1000037C1000035C1000033C10000D4
:1000500031C100002FC100002DC100000C94BA87EF
:1000600029C100000C941B8B0C94468B0C94778B4D
:1000700021C100001FC100001DC100001BC1000004
:1000800019C1000017C1000015C1000013C1000014
:100090000C94AC7B0FC10000084AD73B3BCE016EED
:1000A00084BCBFFDC12F3D6C74319ABD56833DDACF
:1000B0003D00C77F11BED9E4BB4C3E916BAAAABEDE
:1000C000000000803F05A84CCDB2D44EB93836A907
:1000D000020C50B9918688083CA6AAAA2ABE000044
:1000E00000803F004E414E494E495459494E46CD3D
:1000F000CCCC3D0AD7233C17B7D13877CC2B3295DF
:1001000095E6241FB14F0A000020410000C84200BC
:10011000401C4620BCBE4CCA1B0E5AAEC59D740185
:100120002902290429082910292029402980290188
:100130002C022C0126022604260826102620264002
:10014000268026402C802C01230223042308231020
:100150002320234023802301200220042008201094
:1001600020202040208020102C202C012F022F0442
:100170002F082F102F202F402F802F7EFE7EFD7EF8
:10018000FB7EF77EEF7EDF7EBF7E7F000100003CBE
:10019000021200020000F9014300030000F501040F
:1001A00001030904DB011802030904C30116030358
:1001B0000904B5010C0C0331003200330034003562
:1001C0000000001603550053004200200053006554
:1001D000007200690061006C0000001803540065A3
:1001E0000065006E00730079006400750069006EA0
:1001F000006F00000004030904090243000201002B
:10020000C0320904000001020201000524001001AF
:100210000524010001042402060524060001070547
:10022000820308004009040100020A0000000705DB
:100230000302400000070584024000001201000292
:1002400002000020C01683047202010203010001B3
:10025000C1020180360181366E75C97A958BF18EA7
:1002600011241FBECFEFD0E2DEBFCDBF10E1A0E072
:10027000B1E0EEE5F9E201E00BBF02C007900D929C
:10028000AA37B107D9F72EE1AAE7B0E101C01D9264
:10029000AF36B207E1F711E0C0E3D1E004C0219727
:1002A000FE010E94A392CC32D107C9F70E94F28CC2
:1002B0000C94AD94A5CE0C9497940C949F9486E2E4
:1002C0000E946A852091591B211112C020911603AA
:1002D000309117032817390714F488EE93E0209122
:1002E0001403309115038217930714F48AE090E009
:1002F00008951F93CF93DF93EC01162F672F01967C
:10030000DCDF6AE070E080E090E00E94FA87612F15
:10031000CE01D3DF6AE070E080E090E0DF91CF9122
:100320001F910C94FA870F931F93CF93DF938C0147
:100330000196C1DFC82FC801BEDFDC2FC82F6AE0DD
:1003400070E080E090E00E94FA87CE01DF91CF91CB
:100350001F910F9108958F929F92AF92BF92CF926B
:10036000DF92EF92FF924B015C0120E030E040EA27
:1003700050E40E9494916B017C0120E030E0A901DF
:10038000C501B4010E9489911816E4F4A7019601F1
:1003900060E070E08AEF94E40E94048F0E943A903B
:1003A000272F862F922F803223E0920714F480E2C9
:1003B00093E0FF90EF90DF90CF90BF90AF909F9031
:1003C0008F90089520E030E04AEF54E4C701B60171
:1003D0000E94058FE3CFFB0101900020E9F73197E0
:1003E000AF01461B570BDC01ED91FC910280F381BC
:1003F000E02D0994F0CFAB01770F660B770B0C94CF
:100400004A8C0C94568C0F931F93CF93DF93EC017F
:10041000E2DF8C01CE010E94CE8B800F911FDF9115
:10042000CF911F910F9108950F931F93CF93DF9357
:10043000EC01462F50E070E060E020E00E94E88B85
:100440008C01CE010E94CE8B800F911FDF91CF9146
:100450001F910F9108950F931F93CF93DF93EC019A
:10046000CADF8C01CE010E94CE8B800F911FDF91DD
:10047000CF911F910F9108950F931F93CF93DF9307
:10048000EC010E94568C8C01CE010E94CE8B800F15
:10049000911FDF91CF911F910F9108952F923F925D
:1004A0004F925F926F927F928F929F92AF92BF9284
:1004B000CF92DF92EF92FF920F931F93CF93DF9330
:1004C000CDB7DEB76C970FB6F894DEBF0FBECDBFC9
:1004D0001C014F8B588F698F7A8F0D871E872F874E
:1004E000388BFC8EEB8EAD82BE82CF82D886409058
:1004F000E01A5090E11A6090E21A7090E31A20E03E
:1005000030E0A901C301B2010E94899118160CF0D4
:1005100024C220E030E040E050E4C301B2010E9478
:10052000899118160CF423C2F101E657FF4F608140
:100530007181072E000C880B990B0E946D906987C2
:100540007A878B879C87F101EE57FF4FC080D1805F
:10055000E280F380349760817181072E000C880B54
:10056000990B0E946D9021962CAD3DAD4EAD5FADC7
:1005700021970E9494914B015C012D813E814F8116
:10058000588569857A858B859C850E9494919B010D
:10059000AC01C501B4010E94058F4B015C012DA97E
:1005A0003EA94FA958ADC701B6010E9494919B0185
:1005B000AC01C501B4010E94058F4B015C01F10142
:1005C000E85DFE4F208131814281538161966CAD9F
:1005D0007DAD8EAD9FAD61970E9494919B01AC0162
:1005E000C501B4010E94058F698B7A8B8B8B9C8B24
:1005F000A1014B5B5F4F5E8B4D8BDA016D937D9359
:100600008D939C931397F101E852FF4F60817181A4
:10061000329680819181681B790B072E000C880B24
:10062000990B0E946D90F101618B728B838B948B7F
:100630008091FE1C9091FF1CA091001DB091011DA6
:1006400089839A83AB83BC83858B968BA78BB08F72
:10065000E75BFF4F80809180A280B38021962CAD14
:100660003DAD4EAD5FAD21976D817E818F819885C7
:100670000E94058F2DA93EA94FA958AD0E94058F54
:1006800061962CAD3DAD4EAD5FAD61970E94058F7B
:1006900020E030E040E05FE30E94CB8F810108550D
:1006A0001D4F18160CF078C1A501940169897A894B
:1006B0008B899C890E94048F2DEC3CEC4CEC5DE313
:1006C0000E94D28FD8016D937D938D939C93139745
:1006D00020E030E0A901F101EB5BFF4F6081718107
:1006E000828193810E94CB8F882381F020E030E0CB
:1006F000A901C501B4010E94CB8F811107C0F1018E
:10070000E855FD4F108211821282138220E030E002
:10071000A901C301B2010E94899118160CF449C1C4
:10072000C301B201905820E030E040E85FE30E944E
:10073000899187FD26C020E030E0A901C701B601FC
:100740000E94899118160CF437C1C701B601905860
:1007500020E030E040EF51E40E94899187FD11C014
:10076000A3019201C701B6010E94D28F20E030E0C0
:10077000A9010E94CB8F181624F01D861E861F86A5
:10078000188AF101E855FD4F608171818281938162
:100790000E943A904B0129A93AA94BA95CA9C7012B
:1007A000B6010E9494910E943A907B01E80CF91CDA
:1007B00025962CAD3DAD4EAD5FAD259769857A850B
:1007C0008B859C850E9494910E943A90E60EF71EBC
:1007D000F101E056FD4F20813181428153816F89C3
:1007E000788D898D9A8D0E9494910E943A90E60EA0
:1007F000F71E2B966EAD7FAD2B97072E000C880B46
:10080000990B0E946D9029962CAD3DAD4EAD5FAD1C
:1008100029970E9494910E943A90AB01F101E0580F
:10082000FF4F71836083FC9680809180A280B380AB
:100830008091AC1C9091AD1CA091AE1CB091AF1CEE
:1008400095018401081B190B2A0B3B0B2D968EADCD
:100850009FAD2D97092E000CAA0BBB0B081719078B
:100860002A073B0708F4ABC08092AC1C9092AD1CE9
:10087000A092AE1CB092AF1CBA01550F880B990B19
:100880000E946D904B015C0120E030E040EA51E4B1
:100890006D857E858F8598890E949491A301920130
:1008A0000E9494910E943A902B01C501B4010E94CC
:1008B0003A906E0D7F1D460E571EF101EA57FF4F0D
:1008C000208131814281538169AD7AAD8BAD9CAD80
:1008D0000E9494910E943A90460E571E2DA93EA95F
:1008E0004FA958AD69817A818B819C810E94949136
:1008F0000E943A90640D751DF101EB58FF4F808105
:100900009181860F971F9C0197FF04C022273327F0
:10091000281B390B4B8D5C8D241735070CF053C009
:100920009183808390E080E06C960FB6F894DEBFF0
:100930000FBECDBFDF91CF911F910F91FF90EF9030
:10094000DF90CF90BF90AF909F908F907F906F90EF
:100950005F904F903F902F90089520E030E040E06E
:1009600050ECC301B2010E94CB8F87FFDDCD809197
:10097000771B9091781BA091791BB0917A1B8854BA
:10098000944FAF4FBF4F8093061D9093071DA093C8
:10099000081DB093091DC8CDF80110821182128282
:1009A0001382AD89BE891D921D921D921C921397D0
:1009B0008FCEC301B201B7CEC701B601C9CE812C1B
:1009C000912C540161CF11821082AECF4F925F9271
:1009D0006F927F92AF92BF92CF92DF92EF92FF928F
:1009E0000F931F93CF93DF93CDB7DEB72A970FB640
:1009F000F894DEBF0FBECDBF9A8789875B012D8338
:100A00003E834F835887FC01E85DFD4F6081718113
:100A100082819381A0DC782FE985FA85EF59FF4F19
:100A20006081518142813381E985FA85E657FF4F24
:100A300080812181E985FA85E05AFD4F008111818D
:100A4000E985FA85EC59FD4FC080D180E280F380C2
:100A5000C982DA82EB82FC82E985FA85E459FD4F8E
:100A60004080518062807380A114B10409F5E9854A
:100A7000FA85E85CFD4FA080B180C280D3803F93AF
:100A80004F935F936F931F921F922F938F931F9299
:100A90001F921F921F92E985FA85EC5BFD4F8381BF
:100AA0008F9382818F9381818F9380818F932BC0CD
:100AB000E1E0AE16B10409F057C0E985FA85E85CBB
:100AC000FD4FA080B180C280D3803F934F935F934E
:100AD0006F931F921F922F938F931F921F921F92BB
:100AE0001F92E985FA85EC5BFD4F208131814281BF
:100AF00053816D817E818F8198850E9494919F930F
:100B00008F937F936F93E985FA85E458FD4F838136
:100B10008F9382818F9381818F9380818F93E985D9
:100B2000FA85EC5AFD4F83818F9382818F93818167
:100B30008F9380818F93E985FA85E05BFD4F8381F8
:100B40008F9382818F9381818F9380818F93E985A9
:100B5000FA85E45CFD4F83818F9382818F9381813D
:100B60008F9380818F9385C0E2E0AE16B10409F5C2
:100B7000E985FA85E85CFD4FA080B180C280D38012
:100B80003F934F935F936F931F921F922F938F9377
:100B90001F921F921F921F92E985FA85EC5BFD4F11
:100BA00083818F9382818F9381818F9380818F93B3
:100BB0002AC0E6E0AE16B10409F07FC0E985FA85E7
:100BC000E85CFD4FA080B180C280D3803F934F93FB
:100BD0005F936F931F921F922F938F931F921F9279
:100BE0001F921F92E985FA85EC5BFD4F20E030E013
:100BF000A90160817181828193810E9494919F9368
:100C00008F937F936F93E985FA85E458FD4F838135
:100C10008F9382818F9381818F9380818F93E985D8
:100C2000FA85EC5AFD4F83818F9382818F93818166
:100C30008F9380818F93E985FA85E05BFD4F8381F7
:100C40008F9382818F9381818F9380818F93E985A8
:100C5000FA85E45CFD4F20813181428153816D81B1
:100C60007E818F8198850E9494919F938F937F932B
:100C70006F93780109811A812B813C81B301A20114
:100C800089859A850BDC0FB6F894DEBF0FBECDBF09
:100C90002A960FB6F894DEBF0FBECDBFDF91CF917D
:100CA0001F910F91FF90EF90DF90CF90BF90AF908A
:100CB0007F906F905F904F900895E4E0AE16B1047E
:100CC00009F456CFE5E0AE16B10409F056C0E98547
:100CD000FA85E85CFD4FA080B180C280D3803F934D
:100CE0004F935F936F931F921F922F938F931F9237
:100CF0001F921F921F92E985FA85EC5BFD4F2081C0
:100D00003181428153816D817E818F8198850E94DE
:100D100094919F938F937F936F93E985FA85E4581D
:100D2000FD4F83818F9382818F9381818F93808107
:100D30008F93E985FA85EC5AFD4F83818F938281E9
:100D40008F9381818F9380818F93E985FA85E05B12
:100D5000FD4F83818F9382818F9381818F938081D7
:100D60008F93E985FA85E45CFD4F20E030E0A9012E
:100D7000608171818281938176CFE3E0AE16B10408
:100D800009F075CE3F934F935F936F939F937F933B
:100D90002F938F931F921F921F921F92682F722F73
:100DA00077FF03C0719561957109072E000C880BC0
:100DB000990B0E946D909B01AC016D817E818F81AA
:100DC00098850E94D28F9F938F937F936F931F92EA
:100DD0001F921F921F921F921F921F921F921F928B
:100DE0001F921F921F921F921F921F921F92A12C5F
:100DF000B12C65013ECF4F925F926F927F92AF927E
:100E0000BF92CF92DF92EF92FF920F931F93CF93F7
:100E1000DF93EC01CB01BA0159018E010E571F4F30
:100E2000F801C080D180E280F38020E030E040EA29
:100E300051E40E9494912B013C01FE01E657FF4FC3
:100E400060817181072E000C880B990B0E946D90B8
:100E500020E030E0A9010E948991A30192011816B7
:100E60001CF5C701B6010E94058FF80160837183EC
:100E70008283938320E030E040E85FE3B501CE0158
:100E8000A5DDC458DF4F99838883DF91CF911F91EF
:100E90000F91FF90EF90DF90CF90BF90AF907F9039
:100EA0006F905F904F900895C701B6010E94048F24
:100EB000DCCFAF92BF92CF92DF92EF92FF920F936F
:100EC0001F93CF93DF938C0168E273E081E69EE18C
:100ED00091DA6DE373E081E69EE18CDA78018AE8CD
:100EE000E80EF11CF70180819181C4E1D0E0BE01E0
:100EF0000E946E9281E69EE17EDA68E573E081E60B
:100F00009EE178DA5801FCE7AF0EB11CF501808153
:100F10009181BE010E946E9281E69EE16CDA68E6E4
:100F200073E081E69EE166DAF801EE57FF4F4081FB
:100F300051816281738122E030E081E69EE161DAD5
:100F400060E773E081E69EE155DAF801EE54FF4F69
:100F50006081718181E69EE17EDAF5011182108265
:100F60008091A31AE801C854DF4F882309F459C0BF
:100F7000E05CFD4F60817181828193810E943A9093
:100F8000660F771F68567E4FFB01808191819983A0
:100F90008883F801EB56FF4F11821082C091DE1C4E
:100FA000D091DF1CF7016081718177FF03C07195DB
:100FB00061957109072E000C880B990B0E946D90AA
:100FC0006B017C01CE010797039708F078C020E001
:100FD00030E046E953E4C701B6010E94899187FDDC
:100FE00023C0CC0FDD1FCC0FDD1FC455DE4F26E61E
:100FF00036E646EA5FE3688179818A819B810E94B7
:101000009491AB01BC0126E030E0C801DF91CF91A3
:101010001F910F91FF90EF90DF90CF90BF90AF9016
:10102000EACE87E090E0B3CF20E030E048E453E43C
:10103000C701B6010E94899187FD0BC0CC0FDD1F4F
:10104000CC0FDD1FC455DE4F2DEC3CEC4CE45FE3D0
:10105000D2CF20E030E046E153E4C701B6010E9460
:10106000899187FD0BC0CC0FDD1FCC0FDD1FC45550
:10107000DE4F20E030E040E05FE3BDCF20E030E035
:1010800040EF52E4C701B6010E94899124E030E0AC
:1010900087FF5FC020E030E0A90170E060E0C80198
:1010A00095DCF50191838083DF91CF911F910F91A2
:1010B000FF90EF90DF90CF90BF90AF90089525976D
:1010C00020E030E046E953E4C701B6012297D8F5A5
:1010D0000E94899124E030E043E353E363E37FE33C
:1010E00087FF93CF20E030E048E453E4C701B60126
:1010F0000E94899124E030E04DEC5CEC6CEC7EE3E6
:1011000087FF83CF20E030E046E153E4C701B6011A
:101110000E94899124E030E04DEC5CEC6CE47EE3CD
:1011200087FF73CF20E030E040EF52E4C701B60103
:101130000E94899124E030E087FDACCF4DEC5CEC5F
:101140006CEC7DE362CF0E94899187FD07C030E09F
:1011500020E040E050E060E07FE357CF20E030E067
:1011600048E453E4C701B6010E94899187FD92CFFC
:1011700030E020E0E3CF8F929F92AF92BF92EF9248
:10118000FF920F931F93CF93DF937C0180915E1B9F
:10119000E701CD58DF4F81110EC019821882C701B7
:1011A000DF91CF911F910F91FF90EF90BF90AF9083
:1011B0009F908F907ECEF701E657FF4F00811181FF
:1011C0000D3221E012076CF020E030E040E252ECFA
:1011D000389760817181828193810E94CB8F87FDD6
:1011E00020C0B801012E000C880B990B0E946D9055
:1011F0004B015C0120E030E046E953EC0E94CB8FCC
:1012000087FF1EC020E030E040E252E4F701EE57D5
:10121000FF4F60817181828193810E9489911816AC
:101220007CF48881998101978A35910514F089E5CC
:1012300090E097FF02C090E080E09983888314C01B
:10124000C8018A569F4F8D32914060F08091CE1C2C
:101250009091CF1CA091D01CB091D11C892B8A2BCE
:101260008B2B69F01982188288819981843F9E476F
:101270000CF495CF84EF9EE79983888390CFC801C3
:1012800017FF04C088279927801B910B9801255DC3
:101290003E4F2735324028F28D32914024F088812C
:1012A00099810196CACF063911057CF020E030E023
:1012B00040E252E4F701EE57FF4F60817181828175
:1012C00093810E948991181654F320E030E046E1A2
:1012D00053ECC501B4010E94CB8F18167CF020E0BE
:1012E00030E040E252ECF701EE57FF4F6081718130
:1012F000828193810E94CB8F87FDD1CF65E873E017
:1013000081E69EE177D8B0CF8F929F92AF92BF9245
:10131000CF92DF92EF92FF920F931F93CF93DF93C1
:10132000EC01FC01EA57FF4F1082118212821382F6
:101330008090D21C9090D31CA090D41CB090D51C4F
:101340004091771B5091781B6091791B70917A1BAB
:10135000481959096A097B09453651056105710526
:1013600010F52091E41C3091E51C2130310599F4F1
:10137000C458DF4F84E690E099838883DF91CF9152
:101380001F910F91FF90EF90DF90CF90BF90AF90A3
:101390009F908F9008952230310581F7C458DF4F18
:1013A0008CE99FEFE9CFC090D61CD090D71CE0907D
:1013B000D81CF090D91CB701A601481959096A092F
:1013C0007B09413E5E426105710548F01092D61CD2
:1013D0001092D71C1092D81C1092D91CCFCFFE01AE
:1013E000E657FF4F6081718177FF03C0719561956A
:1013F0007109072E000C880B990B0E946D9020E05C
:1014000030E040E753E40E9489918E0104581F4F59
:1014100018160CF03DC0E4E6CE0ED11CE11CF11C08
:10142000C092D61CD092D71CE092D81CF092D91C46
:10143000C818D908EA08FB0820E030E0A901F1E16A
:10144000CF16F7E2DF06E104F10458F4F9E8CF160D
:10145000F3E1DF06E104F10478F020E030E048E455
:1014600052E463E070E0CE01B1DAF8019183808349
:1014700081E08093EF1C82CF20E030E040E05FE32A
:1014800062E070E0CE01A2DAF8019183808376CF2A
:101490002DEC3CEC4CE45FE3F3CF2F923F924F9264
:1014A0005F926F927F928F929F92AF92BF92CF92F4
:1014B000DF92EF92FF920F931F93CF93DF93CDB7FD
:1014C000DEB760970FB6F894DEBF0FBECDBF1C012C
:1014D0003C0128ED621A2DEF720AF30160817181DF
:1014E000828193810E94AB018D879B879101285C4B
:1014F0003D4F3C832B83F901A080B180C280D38013
:10150000285D3F4F3E832D83F901E080F1802C5F01
:101510003F4F38872F83F901008111812281338168
:10152000C10184599D4F9A878987FC01408151816F
:1015300062817381EB50F24083818F9382818F931C
:1015400081818F9380818F93FB85FF938D858F930E
:1015500041019AE8890E911CF40181818F93808169
:101560008F93EE52FE4F83818F9382818F9381817F
:101570008F9380818F93789783818F9382818F93CC
:1015800081818F9380818F93F89683818F9382815D
:101590008F9381818F9380818F93B89783818F936D
:1015A00082818F9381818F9380818F933497838100
:1015B0008F9382818F9381818F9380818F93749792
:1015C00083818F9382818F9381818F9380818F9389
:1015D000C1010E944E020FB6F894DEBF0FBECDBF10
:1015E0006BEA73E081E69EE10E94FA0180915E1B46
:1015F000882309F48DC1810105581F4FF80110821D
:10160000EF5BFF4F80819181A281B3814091CE1C1D
:101610005091CF1C6091D01C7091D11C841B950BF4
:10162000A60BB70B8131944AA105B105B0F4F401C2
:101630006081718177FF03C0719561957109072EF3
:10164000000C880B990B0E946D9020E030E042E581
:1016500053E40E94CB8F87FF09C081E0F8018083AB
:1016600065EB73E081E69EE10E94FA01F4010190CE
:10167000F081E02DFA83E983F8018081882309F461
:1016800093C0F101E658FF4F10821092CE1C1092C9
:10169000CF1C1092D01C1092D11CF10111A6E1595F
:1016A000FF4F88E59BE1A0E0B0E080839183A283B7
:1016B000B38380E090E0A0EEB0E48093E61C9093CA
:1016C000E71CA093E81CB093E91CEB81FC81A0808F
:1016D000B180C280D380ED81FE81E080F180EF8116
:1016E000F8850081118122813381E985FA85408165
:1016F000518162817381F101EF59FF4F83818F9393
:1017000082818F9381818F9380818F93FB85FF935B
:101710008D858F939A819F93E981EF93F101E45A2C
:10172000FD4F83818F9382818F9381818F938081FD
:101730008F93789783818F9382818F9381818F9309
:1017400080818F93F89683818F9382818F9381819B
:101750008F9380818F93B89783818F9382818F93AA
:1017600081818F9380818F93349783818F9382813E
:101770008F9381818F9380818F93749783818F93CF
:1017800082818F9381818F9380818F93C1010E9489
:101790004E02F101E458FF4F918380830FB6F89415
:1017A000DEBF0FBECDBFB4C0F30160817181828105
:1017B00093810E94AB018D879E8780E090E0A0EE30
:1017C000B0E48093E61C9093E71CA093E81CB093D0
:1017D000E91C69817A8177FF03C071956195710970
:1017E000072E000C880B990B0E946D906B017C01F9
:1017F00020E030E04FEA54E40E94899118160CF082
:10180000A0C08091CE1C9091CF1CA091D01CB09113
:10181000D11C8059984EAF4FBF4F4091771B5091CC
:10182000781B6091791B70917A1B84179507A60726
:10183000B70708F086C081E0F10181A781010E574A
:101840001F4FF801C080D180E280F38020E030E0BB
:1018500040EA51E46091E61C7091E71C8091E81C1D
:101860009091E91C0E9494912B013C0129813A81BD
:10187000AC0137FD9BC09B01C701B6010E94058FDB
:101880004B015C0120E030E0A901C701B6010E94D4
:101890008991181624F0F7FAF094F7F8F0942DECEB
:1018A0003CEC4CE45FE3C301B2010E9494912B0134
:1018B0003C01A70196010E94CB8FF101E159FF4F36
:1018C000F88BEF87910124583F4F3C872B871816E0
:1018D0000CF472C0F80180829182A282B382EF85FB
:1018E000F88980819181A281B3818C599F4FAF4F3C
:1018F000BF4F80839183A283B38320E030E0A901AE
:1019000061E070E0C10162D8EB85FC859183808342
:1019100060960FB6F894DEBF0FBECDBFDF91CF91BA
:101920001F910F91FF90EF90DF90CF90BF90AF90FD
:101930009F908F907F906F905F904F903F902F90EF
:10194000089520E030E04AEF53E4C701B6010E9459
:10195000CB8F87FF0DC080E090E0A0E8BFE38093CD
:10196000E61C9093E71CA093E81CB093E91C66CF9B
:1019700020E030E04FE254E4C701B6010E94CB8F73
:1019800087FF05C080E090E0A0E8B0E4E8CF20E069
:1019900030E041E654E4C701B6010E94CB8F87FFD7
:1019A0004DCF80E090E0A0ECB0E4D9CF9B01C7011F
:1019B000B6010E94048F64CFA7019601C301B20152
:1019C0000E94899118160CF485CFEB81FC81A080D0
:1019D000B180C280D380ED81FE81E080F180EF8113
:1019E000F8850081118122813381E985FA85408162
:1019F000518162817381F101EF59FF4F83818F9390
:101A000082818F9381818F9380818F93FE85FF9355
:101A10008D858F939A819F93E981EF93F101E45A29
:101A2000FD4F83818F9382818F9381818F938081FA
:101A30008F93789783818F9382818F9381818F9306
:101A400080818F93F89683818F9382818F93818198
:101A50008F9380818F93B89783818F9382818F93A7
:101A600081818F9380818F93349783818F9382813B
:101A70008F9381818F9380818F931F921F921F92EA
:101A80001F92C1010E944E02EB85FC8591838083E9
:101A9000EF85F88980819181A281B3818C599F4F14
:101AA000AF4FBF4F80839183A283B38377CE2F92B2
:101AB0003F924F925F926F927F928F929F92AF92DE
:101AC000BF92CF92DF92EF92FF920F931F93CF932B
:101AD000DF9300D000D000D0CDB7DEB79E838D83DA
:101AE000FC01E85DFD4F60817181828193810E94DC
:101AF000AB01182F092FCD80DE8082E8C80ED11CE3
:101B0000F6016081718182819381209118032230D6
:101B100009F0B2C020E030E040E752E40E94058FB7
:101B2000ED81FE81E454FF4F80809180A280B380DC
:101B30004090CA1C5090CB1C6090CC1C7090CD1C67
:101B400084189508A608B708ED81FE81EF59FF4F6C
:101B500020813181A281B381ED81FE81E657FF4F63
:101B600040815181ED81FE81E05AFD4FE080F1809E
:101B7000ED81FE81EC59FD4F408051806280738081
:101B800049825A826B827C82ED81FE81E459FD4F4D
:101B90004080518062807380ED81FE81E458FF4F68
:101BA0001F01F1E18F16F7E29F06A104B10408F0CE
:101BB0006AC0F6016083718382839383BF93AF937E
:101BC0003F932F930F931F935F934F931F921F92F7
:101BD0001F921F921F921F921F921F921F921F927D
:101BE0001F921F921F921F921F921F921F921F926D
:101BF0001F921F926091020370910303072E000C45
:101C0000880B990B0E946D9020E030E048EC52E484
:101C10000E94D28F9F938F937F936F93A12CB12CAF
:101C2000650109811A812B813C81B301A2018D815B
:101C30009E810E944E02F101918380830FB6F89439
:101C4000DEBF0FBECDBF26960FB6F894DEBF0FBE27
:101C5000CDBFDF91CF911F910F91FF90EF90DF905B
:101C6000CF90BF90AF909F908F907F906F905F903C
:101C70004F903F902F90089520E030E040E752E4ED
:101C80000E94048F4DCF91E289169EE49906A1042B
:101C9000B10408F493CFED81FE81E85CFD4FA08094
:101CA000B180C280D380BF93AF933F932F930F93A4
:101CB0001F935F934F93ED81FE81E45AFD4F838123
:101CC0008F9382818F9381818F9380818F93ED8118
:101CD000FE81EC5BFD4F83818F9382818F938181A5
:101CE0008F9380818F93ED81FE81E458FD4F838136
:101CF0008F9382818F9381818F9380818F93ED81E8
:101D0000FE81EC5AFD4F83818F9382818F93818175
:101D10008F9380818F93ED81FE81E05BFD4F838106
:101D20008F9382818F9381818F9380818F93ED81B7
:101D3000FE81E45CFD4F83818F9382818F9381814B
:101D40008F9380818F936DCFDC0111961C921E9230
:101D50002D913C911197223331057CF4F901E05427
:101D6000FF4FEE0FFF1FEA0FFB1F118210822F5F44
:101D70003F4F11963C932E93EBCF0895FC01E15514
:101D8000FF4F4423A9F020813181261B370B2431DA
:101D9000310571F0DC01A258BF4F11961C921E92C2
:101DA00012961D921C9286549F4FDC011D921C922C
:101DB0007183608308954F925F926F927F928F92AA
:101DC0009F92AF92BF92CF92DF92EF92FF921F93BA
:101DD000CF93DF9300D000D000D0CDB7DEB79E8385
:101DE0008D83162F64ED73E081E69EE10E94FA0177
:101DF000612F81E69EE10E9414024090771B509073
:101E0000781B6090791B70907A1B21E1421627E2C3
:101E100052066104710408F016C1ED81FE81E65896
:101E2000FF4F8081811117C1ED81FE81E758FF4F7F
:101E30008081811110C16091B81C7091B91C809192
:101E4000BA1C9091BB1C905820E030E040EA51E46D
:101E50000E9494914B015C0120911A1D30911B1D31
:101E600040911C1D50911D1D0E94058F6B017C012E
:101E700020E030E0A9010E948991181624F0F7FAB9
:101E8000F094F7F8F09420E030E040EF52E4C7011E
:101E9000B6010E94CB8F18160CF4DDC020E030E0B4
:101EA00048EC51E460910E1D70910F1D8091101D42
:101EB0009091111D0E949491A50194010E94058F9B
:101EC00020E030E040ED51E40E94D28F60930E1D7F
:101ED00070930F1D8093101D9093111D20E030E032
:101EE00040EA51E46091B41C7091B51C8091B61C1D
:101EF0009091B71C0E9494916B017C0120E030E02E
:101F000048EC51E460910A1D70910B1D80910C1DED
:101F100090910D1D0E9494919B01AC01C701B601E7
:101F20000E94058F20E030E040ED51E40E94D28F06
:101F300060930A1D70930B1D80930C1D90930D1DD3
:101F400020E030E040EA51E46091B01C7091B11C97
:101F50008091B21C9091B31C0E9494916B017C0102
:101F600020E030E048EC51E46091021D7091031DC7
:101F70008091041D9091051D0E9494919B01AC01DC
:101F8000C701B6010E94058F20E030E040ED51E42A
:101F90000E94D28F6093021D7093031D8093041DD5
:101FA0009093051D63EF73E081E69EE10E94FA01C4
:101FB00040910E1D50910F1D6091101D7091111DCB
:101FC00022E030E081E69EE10E94010269E074E0D7
:101FD00081E69EE10E94FA016091B81C7091B91CE3
:101FE0008091BA1C9091BB1C905820E030E040EAF0
:101FF00051E40E949491AB01BC0122E030E081E603
:102000009EE10E943C0211118CC460910E1D7091E2
:102010000F1D8091101D9091111D26960FB6F894FA
:10202000DEBF0FBECDBFDF91CF911F91FF90EF902C
:10203000DF90CF90BF90AF909F908F907F906F90E8
:102040005F904F90089531E3431635E753066104DE
:10205000710408F0EEC0ED81FE81E658FF4F8081EB
:102060008111E7C0ED81FE81E758FF4F808181112A
:10207000E0C020E030E040EA51E4ED81FE81EE571F
:10208000FF4F60817181828193810E94D28F6B01A9
:102090007C0120E030E0A9010E948991181624F00B
:1020A000F7FAF094F7F8F09420E030E040E651E4DD
:1020B000C701B6010E94CB8F18160CF4BAC060910C
:1020C000B81C7091B91C8091BA1C9091BB1C90589F
:1020D00020E030E040EA51E40E9494914B015C0121
:1020E00020911A1D30911B1D40911C1D50911D1DEA
:1020F0000E94058F6B017C0120E030E0A9010E9465
:102100008991181624F0F7FAF094F7F8F09420E08B
:1021100030E048EC52E4C701B6010E94CB8F18169C
:102120000CF487C020E030E048EC52E460910E1DD2
:1021300070910F1D8091101D9091111D0E9494911E
:10214000A50194010E94058F20E030E04AEC52E4A2
:102150000E94D28F60930E1D70930F1D8093101DEF
:102160009093111D20E030E040EA51E46091B41CEE
:102170007091B51C8091B61C9091B71C0E949491EF
:102180006B017C0120E030E048E452E460910A1DDC
:1021900070910B1D80910C1D90910D1D0E949491CA
:1021A0009B01AC01C701B6010E94058F20E030E021
:1021B0004CE452E40E94D28F60930A1D70930B1D71
:1021C00080930C1D90930D1D20E030E040EA51E417
:1021D0006091B01C7091B11C8091B21C9091B31CA5
:1021E0000E9494916B017C0120E030E048E452E4CD
:1021F0006091021D7091031D8091041D9091051D39
:102200000E9494919B01AC01C701B6010E94058F09
:1022100020E030E04CE452E40E94D28F6093021D33
:102220007093031D8093041D9093051D61E274E07B
:10223000BBCE20E030E040EA51E4ED81FE81EE5774
:10224000FF4F60817181828193810E94D28F4B0107
:102250005C0180915E1BAD81BE81AC5ABE4F7D0199
:10226000882309F412C120E030E0A901C501B401BE
:102270000E948991181624F0B7FAB094B7F8B09478
:1022800020E030E040E450E4C501B4010E94CB8F6F
:1022900018160CF4D4C0ED81FE81E657FF4F808103
:1022A000918164E170E08431910514F46CEE7FEF6C
:1022B0000E946E92072E000C880B990B0E946D9065
:1022C00020E030E040EA50E40E94CB8F87FFB7C0A7
:1022D000ED81FE81E658FF4F80818111B0C0809171
:1022E000CE1C9091CF1CA091D01CB091D11C805AD3
:1022F0009541AF4FBF4F84159505A605B70508F06A
:102300009EC0ED81FE81E758FF4F8081811197C00B
:102310006091B81C7091B91C8091BA1C9091BB1C43
:10232000905820E030E040EA51E40E9494914B0143
:102330005C0120E030E44CE955E460910E1D7091A1
:102340000F1D8091101D9091111D0E9494919B0171
:10235000AC01C501B4010E94058F20E038E44CE9CE
:1023600055E40E94D28F60930E1D70930F1D8093D1
:10237000101D9093111D20E030E040EA51E460917F
:10238000B41C7091B51C8091B61C9091B71C0E9432
:1023900094914B015C0120E030E44CE955E46091FC
:1023A0000A1D70910B1D80910C1D90910D1D0E94B6
:1023B00094919B01AC01C501B4010E94058F20E0FE
:1023C00038E44CE955E40E94D28F60930A1D709363
:1023D0000B1D80930C1D90930D1D20E030E040EA12
:1023E00051E46091B01C7091B11C8091B21C90912D
:1023F000B31C0E9494914B015C0120E030E44CE955
:1024000055E46091021D7091031D8091041D90910F
:10241000051D0E9494919B01AC01C501B4010E946D
:10242000058F20E038E44CE955E40E94D28F609398
:10243000021D7093031D8093041D9093051D68E396
:1024400074E081E69EE10E94FA0140910E1D5091D8
:102450000F1D6091101D7091111D22E030E081E68A
:102460009EE10E9401026BE474E081E69EE10E941D
:10247000FA01D7014D915D916D917C9122E030E0A0
:1024800081E69EE10E943C02A1CDFD01C080D18089
:10249000E280F380F1E64F16FAEE5F066104710404
:1024A00008F0D7C020E030E040EE50E4C501B401B0
:1024B0000E94CB8F18160CF4D5C020E030E040EA23
:1024C00050E4C701B6010E94CB8F87FFD6C0609150
:1024D000B81C7091B91C8091BA1C9091BB1C90588B
:1024E00020E030E040EA51E40E9494916B017C01CD
:1024F00020E030E048EC52E460910E1D70910F1D19
:102500008091101D9091111D0E9494919B01AC012E
:10251000C701B6010E94058F20E030E04AEC52E48A
:102520000E94D28F60930E1D70930F1D8093101D1B
:102530009093111D20E030E040EA51E46091B01C1E
:102540007091B11C8091B21C9091B31C0E94949127
:102550006B017C0120E030E048EC52E46091021D08
:102560007091031D8091041D9091051D0E9494910E
:102570009B01AC01C701B6010E94058F20E030E04D
:102580004AEC52E40E94D28F6093021D7093031DA7
:102590008093041D9093051D20E030E040EA51E453
:1025A0006091B41C7091B51C8091B61C9091B71CC1
:1025B0000E9494914B015C0180910A1D90910B1D2A
:1025C000A0910C1DB0910D1D89839A83AB83BC83B0
:1025D0009C01AD01C501B4010E94048F6B017C0117
:1025E00020E030E0A9010E94899118160CF4B0C1D6
:1025F00020E030E048E452ECC701B6010E94899126
:1026000018160CF01EC191EA49169BEB59069DE085
:102610006906710408F015C120E030E44CE954E487
:1026200069817A818B819C810E949491A50194019A
:102630000E94058F20E030E64CE954E40E94D28FDE
:1026400060930A1D70930B1D80930C1D90930D1DBC
:1026500028C121E8421629EA520623E062067104E5
:1026600008F071C020E030E040EE50E4C501B40154
:102670000E94CB8F18160CF466C020E030E040EAD0
:1026800050E4C701B6010E94CB8F87FF5CC0609108
:10269000B81C7091B91C8091BA1C9091BB1C9058C9
:1026A00020E030E040EA51E40E9494916B017C010B
:1026B00020E030E04AEF53E460910E1D70910F1D51
:1026C0008091101D9091111D0E9494919B01AC016D
:1026D000C701B6010E94058F20E030E84AEF53E4BD
:1026E0000E94D28F60930E1D70930F1D8093101D5A
:1026F0009093111D20E030E040EA51E46091B01C5D
:102700007091B11C8091B21C9091B31C0E94949165
:102710006B017C0120E030E04AEF53E46091021D40
:102720007091031D8091041D9091051D0E9494914C
:102730009B01AC01C701B6010E94058F20E030E883
:102740004AEF53E41FCF20E030E0A901C501B401F6
:102750000E948991181624F0B7FAB094B7F8B09493
:1027600020E030E040E850E4C501B4010E94CB8F86
:1027700018160CF411CF20E030E040EA50E4C70115
:10278000B6010E94CB8F87FF07CF6091B81C709174
:10279000B91C8091BA1C9091BB1C905820E030E08D
:1027A00040EA51E40E9494916B017C0120E030E406
:1027B0004CE955E460910E1D70910F1D8091101D24
:1027C0009091111D0E9494919B01AC01C701B6012B
:1027D0000E94058F20E038E44CE955E40E94D28F36
:1027E00060930E1D70930F1D8093101D9093111D0B
:1027F00020E030E040EA51E46091B01C7091B11CDF
:102800008091B21C9091B31C0E9494916B017C0149
:1028100020E030E44CE955E46091021D7091031D05
:102820008091041D9091051D0E9494919B01AC0123
:10283000C701B6010E94058F20E038E44CE955E459
:10284000A1CE20E030E0A901C701B6010E94899124
:102850001816ECF420E030E040E252E4C701B60183
:102860000E94CB8F87FF1DC020E030E44CE955E487
:1028700069817A818B819C810E949491A501940148
:102880000E94058F20E038E44CE955E4D7CE20E0E3
:1028900030E040E252ECC701B6010E94899118165F
:1028A0001CF364E574E081E69EE10E94FA01409128
:1028B0000E1D50910F1D6091101D7091111D22E091
:1028C00030E081E69EE10E94010269E074E081E669
:1028D0009EE10E94FA016091B81C7091B91C809130
:1028E000BA1C9091BB1C905820E030E040EA51E4C3
:1028F0000E949491AB01BC0122E030E081E69EE1B0
:102900000E94010267E674E081E69EE10E94FA01FE
:10291000AD81BE81AC5DBE4F4D915D916D917C915D
:102920006CCB113049F460910A1D70910B1D8091A0
:102930000C1D90910D1D71CB123009F066CB60918A
:10294000021D7091031D8091041D9091051D65CBA2
:1029500020E030E048E452E4C701B6010E94CB8F8A
:1029600087FF78CFB1EA4B16BBEB5B06BDE06B0689
:10297000710408F451CE6ECF2F923F924F925F9226
:102980006F927F928F929F92AF92BF92CF92DF927F
:10299000EF92FF920F931F93CF93DF9300D000D05D
:1029A000CDB7DEB79C838B836A017B011901FC01E3
:1029B00080809180A280B3802481358146815781B7
:1029C000C501B4010E94058F20E030E040E05FE3E4
:1029D0000E9494912B013C01EB81FC8184829582C1
:1029E000A682B782A70196010E94048F2DEC3CECD1
:1029F0004CEC5DE30E94899187FD0FC02DEC3CEC0F
:102A00004CEC5DE3C301B2010E94048FEB81FC81B9
:102A1000608371838283938314C0A3019201C701F1
:102A2000B6010E94048F2DEC3CEC4CEC5DE30E945F
:102A3000899187FF06C1EB81FC81C082D182E2824D
:102A4000F38227E73EEB4FE75FE30B811C810056E3
:102A50001F4FF80160817181828193810E9494915E
:102A60002B013C012FE632E143E85AE3C701B601EE
:102A70000E9494919B01AC01C301B2010E94058F99
:102A80009B01AC01F8012083318342835383C7014A
:102A9000B6010E94048F6B017C0120E030E0A901A7
:102AA0000E94899118160CF0D5C023E333E343EB61
:102AB0005FE3C701B6010E94899187FFD6C02AE96A
:102AC00039E949E75FE3EB81FC816089718982899B
:102AD00093890E9494914B015C01A7019601C70163
:102AE000B6010E94949120E030E040E252E40E945E
:102AF000D28F9B01AC01C501B4010E94058FEB810F
:102B0000FC81608B718B828B938B0E94019220E001
:102B100030E048EC51E40E9494919B01AC0160E0EC
:102B200070E080E89FE30E94048F7B018C0120E02D
:102B300030E040E85FE30E94899118160CF4C5C0AC
:102B40002AE037ED43EA5CE3B701C8010E94CB8F6E
:102B500087FDC2C0670109831A83EB81FC818084F1
:102B60009184A284B38484869586A686B7864080A5
:102B70005180628073802A94232809F0C2C020E02B
:102B800030E040E05FE3B701C8010E94899187FF10
:102B9000ACC02DEC3CEC4CEC5DE3B701C8010E94ED
:102BA000CB8F87FDA7C09701A80160E070E080E8A7
:102BB0009FE30E94048FA50194010E9494914B0110
:102BC0005C01A3019201B701C8010E9494919B018D
:102BD000AC01C501B4010E94058FEB81FC816087C7
:102BE000718782879387EB81FC81608571858285FF
:102BF0009385E057FF4F60837183828393832B819A
:102C00003C8128563F4F47015801F901808291824B
:102C1000A282B3820F900F900F900F90DF91CF910F
:102C20001F910F91FF90EF90DF90CF90BF90AF90EA
:102C30009F908F907F906F905F904F903F902F90DC
:102C400008952DEC3CEC4CEC5DE3C301B2010E9415
:102C5000058FDCCE23E333E343EB5FEBC701B60123
:102C60000E94CB8F18160CF42ACF8091DE1C909115
:102C7000DF1C05971CF52AEF3EE74AEA5EE3EB818D
:102C8000FC8160817181828193810E9494912B01EA
:102C90003C012AEF3EE74AE25FE3C501B4010E942E
:102CA00094919B01AC01C301B2010E94058FEB819D
:102CB000FC81608371838283938301CFEB81FC81EC
:102CC00080829182A282B382FACEC12CD12CF0E80C
:102CD000F9832FE32A8341CF2AE0C22E37EDD32E8A
:102CE00033EA39838CE38A8338CFE12CF12C00E07E
:102CF0001FE359CF8DECE82E9CECF92E0CEC1DE374
:102D000052CFA5019401C301B2010E94048F960124
:102D100049815A810E949491A50194015CCFFC01E4
:102D200010821182128213821482158216821782F7
:102D3000148A158A168A178A108E118E128E138E97
:102D400014AA15AA16AA17AA10AE11AE12AE13AE87
:102D500010861186128613861486158616861786A7
:102D6000148E158E168E178E10A211A212A213A207
:102D700014A215A216A217A2108A118A128A138A07
:102D8000DC01A056BF4F1D921D921D921C921397FD
:102D900058961D921D921D921C92139798971D9202
:102DA0001D921D921C92139718971D921D921D92B1
:102DB0001C92139718971D921D921D921C921397A7
:102DC000D0961D921D921D921C921397EC54FF4FAA
:102DD000108211821282138208958F929F92AF9275
:102DE000BF92CF92DF92EF92FF920F931F93CF93F8
:102DF000DF93EC018B011092EA1CFC01672BA9F513
:102E0000E35BFF4F2AE939E949E55FE360817181BE
:102E1000828193810E9494912DEC3CEC44EE51E42C
:102E20000E94D28F6B017C01CD57DF4FC882D982BF
:102E3000EA82FB826091951A7091961A072E000C17
:102E4000880B990B0E946D90A70196010E949491A6
:102E5000DF91CF911F910F91FF90EF90DF90CF9076
:102E6000BF90AF909F908F900895EB5BFF4F2AE942
:102E700039E949E55FE360817181828193810E9434
:102E800094912DEC3CEC44EE51E40E94D28F6B0106
:102E90007C01C75BDF4F2AE939E949E55FE36881D7
:102EA00079818A819B810E9494912DEC3CEC44EEC7
:102EB00051E40E94D28F4B015C010130110529F5CC
:102EC00080911D0390911E038130910519F08F3F71
:102ED000980769F46091971A7091981A072E000C60
:102EE000880B990B0E946D90A5019401AFCF8230A1
:102EF000910529F46091991A70919A1A9FCF0296C0
:102F0000C9F360E070E0CB01A3CF02301105C9F72F
:102F100080911D0390911E038130910559F38F3FDD
:102F2000980741F382309105A9F2029651F7D2CF6A
:102F30003F924F925F926F927F928F929F92AF9249
:102F4000BF92CF92DF92EF92FF920F931F93CF9396
:102F5000DF93CDB7DEB766970FB6F894DEBF0FBE2E
:102F6000CDBF8C01362E298B3A8B4B8B5C8BDC01D1
:102F700017968D919D910D90BC91A02D8D879E8768
:102F8000AF87B88BD8011B968D919D910D90BC9108
:102F9000A02D89839A83AB83BC83D8011F968D9122
:102FA0009D910D90BC91A02D8D839E83AF83B8879A
:102FB00070E060E0C80111DF6093B81C7093B91C29
:102FC0008093BA1C9093BB1C62E070E0C80105DFDF
:102FD0006093B41C7093B51C8093B61C9093B71C7F
:102FE00080910E1D90910F1DA091101DB091111D8B
:102FF00089879A87AB87BC874090B81C5090B91CD2
:103000006090BA1C7090BB1CD801A15EBD4FBE8BF6
:10301000AD8B54968D909D90AD90BC9057975896DF
:103020002D913D914D915C915B97C501B4010E943A
:10303000058F20E030E040E05FE30E9494916B0157
:103040007C01ED89FE89808E918EA28EB38EF8016F
:10305000E555FD4F2081318142815381C301B20189
:103060000E94048F4B015C01AC019B01C701B601BA
:103070000E94048F20E030E040EE50E40E948991ED
:1030800087FD7DC120E030E040EE50E4C701B6018D
:103090000E94048FAD89BE8954966D937D938D9364
:1030A0009C935797F801E555FD4FFE8BED8B698595
:1030B0007A858B859C85905820E030E040EA51E489
:1030C0000E94D28FAD89BE896D937D938D939C9321
:1030D0001397F801E15EFD4FFA87E9874488558828
:1030E0006688778826E636E646E65FE364A175A142
:1030F00086A197A10E9494916B017C01A30192018A
:10310000C301B2010E9494912DEC3CEC4CEC5DE3C8
:103110000E9494919B01AC01C701B6010E94058FEA
:10312000A985BA8594966D937D938D939C9397977B
:103130000E9401924B015C0120E030E040E650E447
:103140000E94899187FFABC1E091DE1CF091DF1CEA
:10315000FA87E98738970CF0A2C12AE939E949E1F1
:103160005EE3C501B4010E9494916B017C01298545
:103170003A852730310509F028C120E030E040E0F1
:103180005FE30E94CB8F87FD43C120E030E040E841
:103190005FE3C701B6010E94899118160CF47FC144
:1031A000D801A15EBD4FBE8BAD8B5C968D909D907E
:1031B000AD90BC905F97FD0180A291A2A2A2B3A2A4
:1031C00020E030E040E05FE3C701B6010E94949147
:1031D00069877A878B879C87A5019401C301B20117
:1031E0000E94048F9B01AC0169857A858B859C8543
:1031F0000E949491A50194010E94058FAD89BE891A
:103200005C966D937D938D939C935F97F801E55445
:10321000FD4FC082D182E282F3823897608371834E
:1032200082839383EA55FE4FFA87E987608371832F
:103230008283938361E070E0C801CFDDF801E35A37
:10324000FB4F608371838283938362E070E0C801E7
:10325000C4DDF801E359FB4F60837183828393835C
:10326000E985FA85C080D180E280F38020E030E0FB
:10327000A901C701B6010E94899118160CF01EC160
:1032800020E030E046E153E4C701B6010E94899195
:1032900018160CF41DC129813A814B815C81CA0149
:1032A000B9010E9494916B017C012D813E814F8177
:1032B0005885CA01B9010E9494919B01AC01C701D4
:1032C000B6010E94058F0E9401929B01AC016D85A1
:1032D0007E858F8598890E94D28F0E94A38FF801E6
:1032E000E558FF4F60837183828393832D813E81F4
:1032F0004F81588569817A818B819C810E94788F6A
:103300006093D31B7093D41B8093D51B9093D61BD3
:10331000A985BA85CD90DD90ED90FC900E94CF8F6D
:103320009B01AC01332009F404C1C701B6010E941E
:10333000949120E030E040EA51EC0E949491609337
:10334000C31B7093C41B8093C51B9093C61B6696CA
:103350000FB6F894DEBF0FBECDBFDF91CF911F91A6
:103360000F91FF90EF90DF90CF90BF90AF909F9024
:103370008F907F906F905F904F903F900895A7013E
:103380009601C501B4010E94048F20E030E040EEB8
:1033900050E40E94899187FD0FC020E030E040EEAC
:1033A00050E4C701B6010E94058FED89FE89648B48
:1033B000758B868B978B76CEAD89BE8954968D9210
:1033C0009D92AD92BC9257976DCE20E030E040ECDC
:1033D0005FE3C501B4010E94899187FF04C089851C
:1033E0009A850597DCF02DEC3CEC4CEC5DE3C701D5
:1033F000B6010E94CB8F87FD59C020E030E040E04D
:103400005FE3C701B6010E94899118160CF0C8CE7F
:10341000C12CD12CE12C3FE3F32EC2CE20E030E0D2
:1034200040E45FE3C501B4010E9489912DEC3CECBE
:103430004CEC5DE387FD19C0C701B6010E94CB8F3C
:1034400087FD34C02DEC3CEC4CEC5EE3C701B601CB
:103450000E94899118160CF0A3CE2DECC22E2CECF4
:10346000D22EED2C2EE3F22E9BCEC701B6010E9488
:10347000CB8F87FD1BC02FE832EC45E75EE3C70129
:10348000B6010E94899118160CF08ACE8FE8C82EDA
:1034900082ECD82E85E7E82E8EE3F82E81CEC12C63
:1034A000D12C40E8E42E4FE3F42E7ACE9DECC92EC9
:1034B0009CECD92EED2C9DE3F92E72CE20E030E06D
:1034C00046E153ECC701B6010E94CB8F87FFE3CEE4
:1034D00067E774E081E69EE10E94FA01A985BA855A
:1034E0004D915D916D917C9122E030E081E69EE10D
:1034F0000E94010260E974E081E69EE10E94FA0107
:103500004091B81C5091B91C6091BA1C7091BB1CC1
:1035100022E030E081E69EE10E943C0289899A899E
:10352000AB89BC89E985FA8580839183A283B383C3
:10353000B2CE20E030E040EA51ECC701B601FDCE4A
:103540004F925F926F927F928F929F92AF92BF92B3
:10355000CF92DF92EF92FF920F931F93CF93DF935F
:10356000EC018C0105561F4FF80180819181019675
:103570009183808388E20E946A85BC01990F880B41
:10358000990B0E946D9023E333EB42E253E40E94D7
:1035900094910E943A902B01FE01E756FF4F7183F0
:1035A00060836E01F3E9CF0ED11CF601E080F1805B
:1035B000E60EF71EF182E0823897072E000C880B8A
:1035C000990B80809180A280B380680D791D8A1D3F
:1035D0009B1D60837183828393835E01FFE8AF0E3E
:1035E000B11C20EA3CE840E050E00E948192F501E5
:1035F00031832083F801608171816835F2E07F07B3
:1036000069F4CF56DF4FC7010E946E9279836883B9
:10361000F80111821082F60111821082C201DF913D
:10362000CF911F910F91FF90EF90DF90CF90BF90BF
:10363000AF909F908F907F906F905F904F90089584
:10364000CF92DF92EF92FF92CF93DF93EC01FC01D8
:10365000EB56FF4F8091771B9091781BA091791BBF
:10366000B0917A1B0496A11DB11D80839183A28322
:10367000B3831D8A1E8A1F8A188E198E1A8E1B8E7E
:103680001C8E1D8E1E8E1F8E18A26E833C9686E0A9
:1036900090E0918380833497C12CD12C80E8E82E70
:1036A0008FE3F82EC082D182E282F3821092A21AB6
:1036B0001092A11A6EE974E081E69EE10E94030275
:1036C0006BEA74E081E69EE10E9403028091920120
:1036D000909193019093CE1B8093CD1B80918E018E
:1036E00090918F019093D01B8093CF1B80918A0182
:1036F00090918B019093D21B8093D11B8091940168
:10370000909195019093C81B8093C71B8091900165
:10371000909191019093CA1B8093C91B80918C0159
:1037200090918D019093CC1B8093CB1B19A21AA270
:103730001BA21CA21DA21EA21FA218A619A61AA691
:103740001BA61CA66CEB74E081E69EE10E940302BE
:10375000FE01E158FF4F10821182128213827C9683
:103760001182108274971082118212821382109239
:103770009F1B1092A01B1092A11B1092A21B72966D
:10378000118210823E971082118212821382349627
:1037900011821082CE018D559F4FC1DACE018F5913
:1037A0009E4FBDDACE01815E9D4FB9DAFE01E15434
:1037B000FD4FC082D182E282F382EE55FE4F10822D
:1037C00011821282138270961082118212821382E9
:1037D000CB59DB4F188219821A821B8280911D03FC
:1037E00090911E038F3F980769F521E030E03093F8
:1037F000A01A20939F1A30939E1A20939D1A3093FB
:103800009C1A20939B1A90939A1A8093991A30933A
:10381000981A2093971A3093961A2093951A3093FA
:10382000941A2093931A3093921A2093911A3093FA
:10383000901A20938F1ADF91CF91FF90EF90DF9035
:10384000CF9008958130910519F52FEF3FEF309318
:10385000A01A20939F1A30939E1A20939D1A90933A
:103860009C1A80939B1A90939A1A8093991A30937A
:10387000981A2093971A9093961A8093951A3093DA
:10388000941A2093931A3093921A2093911A27C076
:103890008230910549F581E090E09093A01A8093E1
:1038A0009F1A2FEF3FEF30939E1A20939D1A90930B
:1038B0009C1A80939B1A90939A1A8093991A30932A
:1038C000981A2093971A9093961A8093951A30938A
:1038D000941A2093931A9093921A8093911A90932A
:1038E000901A80938F1AA7CF029609F0A4CF2FEFDA
:1038F0003FEF3093A01A20939F1A81E090E09093BD
:103900009E1A80939D1A90939C1A80939B1A3093D1
:103910009A1A2093991A9093981A8093971A9093D1
:10392000961A8093951A9093941A8093931AABCF1A
:103930002F923F924F925F926F927F928F929F92BF
:10394000AF92BF92CF92DF92EF92FF920F931F93AD
:10395000CF93DF9300D000D000D0CDB7DEB77C018D
:103960007E836D838A0169018091771B9091781B1A
:10397000A091791BB0917A1BF701EB56FF4F808322
:103980009183A283B3838093C21C9093C31CA093A2
:10399000C41CB093C51CF29780819181FB01918377
:1039A0008083F701EB59FF4F80819181FB01938365
:1039B0008283F701E959FF4F80819181FB01958353
:1039C0008483F70123883488FFEF2F1A3F0AF70119
:1039D000348A238A5701F5E1AF0EB11C9B012A5F9F
:1039E0003F4F3A8329834501ED81FE8161917191B9
:1039F000FE83ED83F40141905190619071904F01ED
:103A00009F01245031093C832B83072E000C880B27
:103A1000990B0E946D9020E030E040E058E30E9456
:103A200094919B01AC010E94058FA30192010E9419
:103A3000058FEB81FC8160837183828393832D8169
:103A40003E8189819A812817390771F69FE02916EE
:103A5000310444F1F701148A138A1A830983780127
:103A6000FCE0EF0EF11CF501619171918191919152
:103A70005F0120E030E040E751E40E94D28FE9810D
:103A8000FA816193719381939193FA83E983F501AC
:103A90003497108211821282138229813A81E216B0
:103AA000F30609F780911D0390911E039A83898381
:103AB0008130910519F0019609F052C06091931A76
:103AC0007091941A072E000C880B990B0E946D9030
:103AD0009B01AC01F80160817181828193810E9418
:103AE0009491F60160837183828393836091911A2C
:103AF0007091921A072E000C880B990B0E946D9002
:103B00009B01AC01F80164817581868197810E94D7
:103B10009491F60164837583868397832FE832EC52
:103B200045EF5CE3F80160857185828593850E948D
:103B3000048F4B015C0160918F1A7091901A072ECF
:103B4000000C880B990B0E946D909B01AC01C50184
:103B5000B4010E949491F6016087718782879387F0
:103B600029813A812230310521F02E3F3F4F09F063
:103B700052C06091911A7091921A072E000C880B16
:103B8000990B0E946D909B01AC01F80164817581D5
:103B9000868197810E949491F6016083718382836C
:103BA00093836091931A7091941A072E000C880BDE
:103BB000990B0E946D909B01AC01F80160817181AD
:103BC000828193810E949491F60164837583868338
:103BD00097832FE832EC45EF5CE3F801608571854F
:103BE000828593850E94048F4B015C0160918F1A3E
:103BF0007091901A072E000C880B990B0E946D9003
:103C00009B01AC01C501B4010E949491F60160874B
:103C100071878287938726960FB6F894DEBF0FBE12
:103C2000CDBFDF91CF911F910F91FF90EF90DF906B
:103C3000CF90BF90AF909F908F907F906F905F904C
:103C40004F903F902F9008952F923F924F925F9206
:103C50006F927F928F929F92AF92BF92CF92DF929C
:103C6000EF92FF920F931F93CF93DF93CDB7DEB701
:103C70002C970FB6F894DEBF0FBECDBF6A017B0153
:103C80000091CC1A1091CD1A2091CE1A3091CF1AF2
:103C90003A872987021713070CF4C6C1B801012E11
:103CA000000C880B990B0E946D904B015C01A701E1
:103CB00096010E94CB8F18160CF4C0C029853A8556
:103CC000B901330F880B990B0E946D906D837E8331
:103CD0008F83988720E030E044EB53E40E94058F07
:103CE0002B013C01A50194010E94048F69837A8312
:103CF0008B839C83A5019401C701B6010E94048FA8
:103D000029813A814B815C810E94D28F9B01AC0159
:103D100060E070E080E89FE30E94048F69877A8703
:103D20008B879C8720E030E044EB53E4C501B4016D
:103D30000E94048F9B01AC0169857A858B859C85E7
:103D40000E94949169877A878B879C87A701960147
:103D5000C301B2010E94048F29813A814B815C81A9
:103D60000E94D28F9B01AC0160E070E080E89FE38D
:103D70000E94048F4B015C0120E030E044E352E4F8
:103D80006D817E818F8198850E94048F9B01AC019B
:103D9000C501B4010E9494919B01AC0169857A85AB
:103DA0008B859C850E94058F9B01AC01C701B601E4
:103DB0000E94048F6B017C0120E030E044EB53E46F
:103DC000C701B6010E94899187FD0AC020E030E05A
:103DD00044EB53E4C701B6010E94048F6B017C01E0
:103DE00020E030E0A901C701B6010E94CB8F87FF18
:103DF0000AC020E030E044EB53E4C701B6010E9462
:103E0000058F6B017C01C701B6012C960FB6F894A3
:103E1000DEBF0FBECDBFDF91CF911F910F91FF90FD
:103E2000EF90DF90CF90BF90AF909F908F907F905A
:103E30006F905F904F903F902F900895A70196014B
:103E4000C501B4010E94899118160CF078C0209029
:103E5000DA1A3090DB1AB101032C000C880B990B95
:103E60000E946D902B013C01A70196010E94CB8F0F
:103E700018160CF464C0B80162197309072E000CFF
:103E8000880B990B0E946D906D837E838F8398873A
:103E9000A3019201C701B6010E94048F2D813E81CA
:103EA0004F8158850E94D28F9B01AC0160E070E089
:103EB00080E89FE30E94048F69837A838B839C83CD
:103EC00020E030E84DE953E4C301B2010E94048FC1
:103ED0009B01AC0169817A818B819C810E949491C4
:103EE00069837A838B839C83A7019601C501B40102
:103EF0000E94048F2D813E814F8158850E94D28F70
:103F00009B01AC0160E070E080E89FE30E94048FB9
:103F10002B013C0120E030E044EB53E4C501B40147
:103F20000E94048F9B01AC01C301B2010E949491D5
:103F30009B01AC0169817A818B819C8133CF29857A
:103F40003A85B901330F880B990B0E946D902B01B4
:103F50003C01A70196010E94899187FD65C020E080
:103F600030E044EB53E4C301B2010E94058FA50188
:103F700094010E94048F6D837E838F83988720E055
:103F800030E044EB53E4C701B6010E94058FA50160
:103F900094010E94048F2D813E814F8158850E949B
:103FA000D28F9B01AC0160E070E080E89FE30E944B
:103FB000048F69837A838B839C8320E030E044EB19
:103FC00053E4C501B4010E94048F9B01AC016981D7
:103FD0007A818B819C810E94949169837A838B83FF
:103FE0009C83A7019601C301B2010E94048F2D8119
:103FF0003E814F8158850E94D28F9B01AC0160E0C9
:1040000070E080E89FE30E94048F4B015C0120E098
:1040100030E044E352E4C301B2010E94048F9B01EB
:10402000AC01C501B40182CF2090DA1A3090DB1ABE
:10403000B101032C000C880B990B0E946D904B0171
:104040005C01A70196010E94CB8F87FF6FC03FE004
:10405000231631E033060CF469C089859A85081768
:1040600019070CF063C0B801110F880B990B0E945F
:104070006D906D837E838F83988720E030E044EBE2
:1040800053E40E94058F2B013C01A50194010E947D
:10409000048F69837A838B839C83A5019401C70174
:1040A000B6010E94048F29813A814B815C810E9474
:1040B000D28F9B01AC0160E070E080E89FE30E943A
:1040C000048F69877A878B879C8720E030E84DE9E9
:1040D00053E4C501B4010E94048F9B01AC016985C2
:1040E0007A858B859C850E9494914B015C01A70188
:1040F0009601C301B2010E94048F29813A814B814C
:104100005C810E94D28F9B01AC0160E070E080E88E
:104110009FE30E94048F2D813E814F8158850E942C
:1041200094919B01AC01C501B4013CCE29853A852F
:10413000B901330F880B990B0E946D902B013C0144
:10414000A70196010E94899187FD60C089859A85A3
:10415000081719070CF05AC0BC01601B710B072E21
:10416000000C880B990B0E946D904B015C01B8010B
:10417000110F880B990B0E946D906D837E838F8346
:104180009887A7019601C301B2010E94048FA5017F
:1041900094010E94D28F9B01AC0160E070E080E846
:1041A0009FE30E94048F2B013C0169857A856D5243
:1041B0007109072E000C880B990B0E946D909B01D2
:1041C000AC01C301B2010E9494912B013C012D81ED
:1041D0003E814F815885C701B6010E94048FA50119
:1041E00094010E94D28F9B01AC0160E070E080E8F6
:1041F0009FE30E94048F2D813E814F8158850E944C
:1042000094919B01AC01C301B201CCCD0091D01AB5
:104210001091D11AB801012E000C880B990B0E9445
:104220006D906D837E838F839887A70196010E948E
:10423000899187FD5DC0B80129853A85621B730BA2
:10424000072E000C880B990B0E946D9069837A836E
:104250008B839C83A3019201C701B6010E94048F46
:1042600029813A814B815C810E94D28F9B01AC01F4
:1042700060E070E080E89FE30E94048F4B015C01E6
:1042800069857A856D527109072E000C880B990B90
:104290000E946D909B01AC01C501B4010E949491F4
:1042A0004B015C01A70196016D817E818F8198850C
:1042B0000E94048F29813A814B815C810E94D28FB8
:1042C0009B01AC0160E070E080E89FE30E94048FF6
:1042D0002B013C01B8016A557109072E000C880BAF
:1042E000990B0E946D909B01AC01C301B20117CFE5
:1042F0008091D21A9091D31A9A878987BC01990F1D
:10430000880B990B0E946D902B013C01A70196012F
:104310000E94899187FD52C069857A85601B710B67
:10432000072E000C880B990B0E946D9069837A838D
:104330008B839C832D813E814F815885C701B601B7
:104340000E94048F29813A814B815C810E94D28F27
:104350009B01AC0160E070E080E89FE30E94048F65
:104360004B015C01B8016A557109072E000C880BDE
:10437000990B0E946D909B01AC01C501B4010E9494
:1043800094914B015C01A7019601C301B2010E9407
:10439000048F29813A814B815C810E94D28F9B01DD
:1043A000AC0160E070E080E89FE30E94048F2B0185
:1043B0003C0169857A85675871098FCF0091D41ABD
:1043C0001091D51AB801012E000C880B990B0E9490
:1043D0006D906D837E838F839887A70196010E94DD
:1043E000899187FD53C0B80129853A85621B730BFB
:1043F000072E000C880B990B0E946D9069837A83BD
:104400008B839C83A3019201C701B6010E94048F94
:1044100029813A814B815C810E94D28F9B01AC0142
:1044200060E070E080E89FE30E94048F4B015C0134
:1044300069857A8567587109072E000C880B990BDE
:104440000E946D909B01AC01C501B4010E94949142
:104450004B015C01A70196016D817E818F8198855A
:104460000E94048F29813A814B815C810E94D28F06
:104470009B01AC0160E070E080E89FE30E94048F44
:104480002B013C01B801645B710927CF8091D61ADA
:104490009091D71A9A878987BC01990F880B990B3D
:1044A0000E946D902B013C01A70196010E94899109
:1044B00087FD52C069857A85601B710B072E000C41
:1044C000880B990B0E946D9069837A838B839C8300
:1044D0002D813E814F815885C701B6010E94048F0E
:1044E00029813A814B815C810E94D28F9B01AC0172
:1044F00060E070E080E89FE30E94048F4B015C0164
:10450000B801645B7109072E000C880B990B0E949F
:104510006D909B01AC01C501B4010E9494914B01C7
:104520005C01A7019601C301B2010E94048F298199
:104530003A814B815C810E94D28F9B01AC0160E08B
:1045400070E080E89FE30E94048F2B013C016985A5
:104550007A85615E7109C1CE0091D81A1091D91A7D
:10456000B801012E000C880B990B0E946D906D8391
:104570007E838F839887A70196010E94899187FD8A
:1045800053C0B80129853A85621B730B072E000CB6
:10459000880B990B0E946D9069837A838B839C832F
:1045A000A3019201C701B6010E94048F29813A81BB
:1045B0004B815C810E94D28F9B01AC0160E070E076
:1045C00080E89FE30E94048F4B015C0169857A8536
:1045D000615E7109072E000C880B990B0E946D908B
:1045E0009B01AC01C501B4010E9494914B015C0197
:1045F000A70196016D817E818F8198850E94048F2D
:1046000029813A814B815C810E94D28F9B01AC0150
:1046100060E070E080E89FE30E94048F2B013C0182
:10462000B8016E50714059CEA7019601C501B40181
:104630000E94899187FDC0CBB101601B710B072ED1
:10464000000C880B990B0E946D9069837A838B8391
:104650009C832D813E814F815885C701B6010E9400
:10466000048F29813A814B815C810E94D28F9B010A
:10467000AC0160E070E080E89FE30E94048F2B01B2
:104680003C01B8016E507140072E000C880B990B4D
:104690000E946D909B01AC01C301B2010E949491F4
:1046A0002B013C01A7019601C501B4010E94048FB2
:1046B00029813A814B815C810E94D28F9B01AC01A0
:1046C00060E070E080E89FE30E94048F4B015C0192
:1046D000B1016B537140072E000C880B990B0E949F
:1046E0006D909B01AC01C501B40189CD2F923F9221
:1046F0004F925F926F927F928F929F92AF92BF92F2
:10470000CF92DF92EF92FF920F931F93CF93DF939D
:10471000CDB7DEB7A2970FB6F894DEBF0FBECDBF00
:104720009AA389A37A836983FA01408151816281C6
:104730007381DC0117964D935D936D937C931A976B
:1047400004811581268137811B960D931D932D932E
:104750003C931E9780859185A285B385E9A1FAA136
:104760008787908BA18BB28B21E030E0CF018D55F4
:104770009F4F0E94BC14A9A1BAA117966D937D9377
:104780008D939C931A971B964D915D916D917C91A1
:104790001E9721E030E0CD018F599E4F0E94BC143E
:1047A000E9A1FAA163877487858796874785508931
:1047B0006189728921E030E0CF01815E9D4F0E94C6
:1047C000BC146B017C01A9A1BAA11F96CD92DD9208
:1047D000ED92FC9252971B968D909D90AD90BC905F
:1047E0001E97AC019B01C501B4010E94788F698FAF
:1047F0007A8F8B8F9C8F0E94F7916D837E838F833E
:104800009887698D7A8D8B8D9C8D0E94CF8F69875B
:104810007A878B879C872D813E814F815885C50182
:10482000B4010E9494914B015C0129853A854B8526
:104830005C85C701B6010E9494919B01AC01C50142
:10484000B4010E94058F9B01AC01E9A1FAA1678127
:104850007085818592850E94788F6D877E878F878E
:10486000988B6CE075E081E69EE10E94FA01A981D7
:10487000BA814D915D916D917C9122E030E081E6AD
:104880009EE10E9401026BE678E081E69EE10E94D3
:10489000FA01E981FA81448155816681778122E0BC
:1048A00030E081E69EE10E9401026BE678E081E65D
:1048B0009EE10E94FA01A981BA8118964D915D91FD
:1048C0006D917C911B9722E030E081E69EE10E9491
:1048D000010267ED7BE081E69EE10E94030264E253
:1048E00075E081E69EE10E94FA01E9A1FAA1478103
:1048F00050856185728522E030E081E69EE10E946C
:1049000001026BE678E081E69EE10E94FA01A9A12E
:10491000BAA11B964D915D916D917C911E9722E0FD
:1049200030E081E69EE10E9401026BE678E081E6DC
:104930009EE10E94FA01E9A1FAA1478550896189A7
:10494000728922E030E081E69EE10E94010267ED7B
:104950007BE081E69EE10E9403026CE375E081E664
:104960009EE10E94FA0122E030E04D855E856F8570
:10497000788981E69EE10E9401026BE678E081E69B
:104980009EE10E94FA014091D31B5091D41B60918B
:10499000D51B7091D61B22E030E081E69EE10E949B
:1049A00001026BE678E081E69EE10E94FA01E9A14E
:1049B000FAA1E75AFB4F408151816281738122E065
:1049C00030E081E69EE10E94010267ED7BE081E636
:1049D0009EE10E940302E9A1FAA1E35AFB4F2BEDED
:1049E0003FE049E450E460817181828193810E94BB
:1049F000949120E030E044E353E40E94D28F4B01D5
:104A00005C0129A03AA0FFE92F1AFBEF3F0AD10170
:104A1000CD90DD90ED90FC9009A11AA10B591B4F90
:104A2000F8014080518062807380A30192010E944E
:104A3000048F20E030E84BEB55E40E94D28FA301B5
:104A400092010E94058F9B01AC01D8012D933D93EB
:104A50004D935C931397C501B4010E94048F2DEC14
:104A60003CEC4CEC5DE30E949491A70196010E94FE
:104A7000058F4B015C012BEA3AEA4AEA5DE3C70184
:104A8000B6010E9494919B01AC01C501B4010E9442
:104A9000048FF1016083718382839383E9A1FAA17A
:104AA000E359FB4F2BED3FE049E450E46081718115
:104AB000828193810E94949120E030E044E353E4AA
:104AC0000E94D28F4B015C0129A03AA0F7E92F1A6E
:104AD000FBEF3F0AD101CD90DD90ED90FC9009A154
:104AE0001AA10F581B4FF8014080518062807380DB
:104AF000A30192010E94048F20E030E84BEB55E4C3
:104B00000E94D28FA30192010E94058F9B01AC01EC
:104B1000D8012D933D934D935C931397C501B40138
:104B20000E94048F2DEC3CEC4CEC5DE30E949491D0
:104B3000A70196010E94058F4B015C012BEA3AEA1E
:104B40004AEA5DE3C701B6010E9494919B01AC0162
:104B5000C501B4010E94048FF101608371838283D7
:104B60009383A981BA818D919D910D90BC91A02DC7
:104B7000898B9A8BAB8BBC8B6D857E858F85988955
:104B80000E94CF8F2B013C01A981BA8118968D918B
:104B90009D910D90BC91A02D8D8B9E8BAF8BB88F6E
:104BA0006D857E858F8598890E94F7914B015C0108
:104BB000A301920169897A898B899C890E949491C9
:104BC0006B017C01A50194016D897E898F89988D87
:104BD0000E9494919B01AC01C701B6010E94058F10
:104BE0006D8F7E8F8F8F98A3A981BA8114968D9136
:104BF0009D910D90BC91A02D89839A83AB83BC833A
:104C000029893A894B895C896D817E818F8198855C
:104C10000E949491A50194010E9494916B017C01E2
:104C200029813A814B815C8169857A858B859C8558
:104C30000E9494919B01AC01C701B6010E94058FAF
:104C40006B017C012D893E894F89588D6D817E8154
:104C50008F8198850E949491A30192010E94949162
:104C60009B01AC01C701B6010E94048F6B017C015E
:104C700069897A898B899C89905829853A854B85E1
:104C80005C850E949491A50194010E9494914B012E
:104C90005C0129813A814B815C816D817E818F81AC
:104CA00098850E9494919B01AC01C501B4010E94BA
:104CB000058F4B015C012D893E894F89588D69858F
:104CC0007A858B859C850E949491A30192010E9414
:104CD00094919B01AC01C501B4010E94058F2B0189
:104CE0003C012D8D3E8D4F8D58A1C701B6010E940C
:104CF000788F20E030E044E353E40E9494912BED60
:104D00003FE049E450E40E94D28F4B015C0120E077
:104D100030E0A901C701B6010E94899187FF0AC04E
:104D200020E030E843EB53E4C501B4010E94058F55
:104D30004B015C0180915A1B811108C0B501A4018F
:104D400089A19AA10E94241E4B015C0166E575E0D1
:104D500081E69EE10E94FA0122E030E04D8D5E8DF9
:104D60006F8D78A181E69EE10E9401026BE678E0FA
:104D700081E69EE10E94FA0122E030E0B701A6013F
:104D800081E69EE10E9401026BE678E081E69EE109
:104D90000E94FA0122E030E0B301A20181E69EE127
:104DA0000E9401026BE678E081E69EE10E94FA0132
:104DB00022E030E0B501A40181E69EE10E940102FB
:104DC00067ED7BE081E69EE10E94030266E675E006
:104DD00081E69EE10E94FA0122E030E0498D5A8D81
:104DE0006B8D7C8D81E69EE10E9401026CE675E090
:104DF00081E69EE10E94FA01E9A1FAA1438554856A
:104E00006585768522E030E081E69EE10E94010220
:104E100066E775E081E69EE10E94FA0122E030E05B
:104E20004D855E856F85788981E69EE10E9401024D
:104E30006DE775E081E69EE10E94FA01A9A1BAA1A1
:104E400017964D915D916D917C911A9722E030E01B
:104E500081E69EE10E94010267E875E081E69EE13D
:104E60000E94FA01E9A1FAA14785508961897289F6
:104E700022E030E081E69EE10E94010266E575E0F5
:104E800081E69EE10E94FA0122E030E04D8D5E8DC8
:104E90006F8D78A181E69EE10E9401026BE678E0C9
:104EA00081E69EE10E94FA0122E030E0B701A6010E
:104EB00081E69EE10E9401026BE678E081E69EE1D8
:104EC0000E94FA0122E030E0B301A20181E69EE1F6
:104ED0000E9401026BE678E081E69EE10E94FA0101
:104EE00022E030E0B501A40181E69EE10E940102CA
:104EF00067ED7BE081E69EE10E940302C501B401FB
:104F0000A2960FB6F894DEBF0FBECDBFDF91CF9152
:104F10001F910F91FF90EF90DF90CF90BF90AF90D7
:104F20009F908F907F906F905F904F903F902F90C9
:104F30000895611158C04031510508F053C0FA017D
:104F4000EC54F84DA0911003B091110360910E0341
:104F500070910F0320910C0330910D0380910A038F
:104F600090910B030C94A3921B284128C42754282A
:104F70002028462833286628D527E2272E286128AE
:104F800029284F283C286F28FD01FF270E94D6853D
:104F9000FB01FF270E94D685F901FF270E94D085DB
:104FA000FC01FF270C94D6850895FD01FF270E9480
:104FB000D085FB01FF270E94D685F901FF270E94BB
:104FC000D685EECFFD01FF270E94D085FB01FF278C
:104FD0000E94D685F901FF270E94D685FC01FF2794
:104FE0000C94D085089540315105E0F7FA01E55F52
:104FF000F74DA0911003B091110360910E037091D1
:105000000F0320910C0330910D0380910A039091BE
:105010000B030C94A3921B28D52720282928C427EA
:105020002E2833283C284128E22746284F28542898
:10503000612866286F28FD01FF270E94D685B9CF19
:10504000FD01FF270E94D685FB01FF270E94D08526
:10505000B4CFFD01FF270E94D085F6CFFD01FF27C9
:105060000E94D08595CFFD01FF270E94D685FB01C8
:10507000FF270E94D08590CFFD01FF270E94D08599
:10508000F6CFFD01FF270E94D685A0CFFD01FF27A7
:105090000E94D685FB01FF270E94D0859BCFFD0192
:1050A000FF270E94D085F6CFFD01FF270E94D685FD
:1050B000FB01FF270E94D685F901FF270E94D085BA
:1050C0008DCFFD01FF270E94D085F2CFFD01FF2784
:1050D0000E94D685FB01FF270E94D085EDCFFD0100
:1050E000FF270E94D085F6CFCF92DF92EF92FF92FA
:1050F0000F931F93CF93DF936A017901E80180E159
:105100009AE10E940593892B09F494C01C141D0494
:105110000CF090C081E0C816D104B1F4F701E35E51
:10512000F54E80818C3271F0E881F981EA5FF54EAD
:105130008083888199810196998388838A5F954EBF
:10514000FC01108281E077C0F2E0CF16D10499F41F
:10515000F701E35EF54E80818C32A1F3E881F9819D
:10516000E450F64E808388819981019699838883E3
:105170008450964EE5CFF3E0CF16D10499F4F701B1
:10518000E35EF54E80818C32E9F2E881F981EE50E0
:10519000F64E8083888199810196998388838E5009
:1051A000964ECECFF4E0CF16D10499F4F701E35E2A
:1051B000F54E80818C3231F2E881F981E851F64E6A
:1051C0008083888199810196998388838851964E3E
:1051D000B7CFF5E0CF16D104A1F4F701E35EF54EA9
:1051E00080818C3209F4AECFE881F981E252F64E2B
:1051F0008083888199810196998388838252964E13
:105200009FCFF6E0CF16D10409F09CCFF701E35E03
:10521000F54E80818C3209F495CFE881F981EC520A
:10522000F64E8083888199810196998388838C5278
:10523000964E86CF80E0DF91CF911F910F91FF9026
:10524000EF90DF90CF9008952F923F924F925F9210
:105250006F927F928F929F92AF92BF92CF92DF9286
:10526000EF92FF920F931F93CF93DF9300D0CDB7B0
:10527000DEB74C01362E3A01790168011A82198293
:1052800061E975E081E69EE10E94FA01D401519640
:105290006C9170E081E69EE10E94FB0163EA75E09B
:1052A00081E69EE10E94FA01F7016081718181E649
:1052B0009EE10E942B02F4E23F1213C081E090E0D5
:1052C0009093841A8093831AE1E8FAE18DE19AE1E0
:1052D00012928E179F07E1F7A090831AB090841A5C
:1052E0001AC02AE23212CBC08FEF9FEF9093841A3C
:1052F0008093831AA090831AB090841AAFEFAA16F5
:10530000BA0649F48091811A9091821A019690937D
:10531000821A8093811AE0E8FAE18DE19AE1229104
:1053200021838E179F07D9F730921D1ABFEFAB1656
:10533000BB0609F02CC28091811A9091821A0397C2
:1053400009F025C21092801A1A8219821092821ACC
:105350001092811A1092841A1092831AE6E0FAE1F0
:105360006CEF79E142EF59E128EE39E18EED99E1F8
:1053700004ED19E11192DB011D92BD01DA011D92CC
:10538000AD01D9011D929D01DC011D92CD01D80115
:105390001D928D01BAE1E031FB0761F763E6462E0D
:1053A000512C22242394F201E35EF54E2081243215
:1053B00009F06AC01A821982B12CA12CF1E04F1AAF
:1053C000510888F78AE238120CC063EB75E081E679
:1053D0009EE10E94FA016DE17AE181E69EE10E9480
:1053E000030263EB75E081E69EE10E94FA016DE144
:1053F0007AE181E69EE10E94030262E871E080E1C9
:105400009AE10E940593892B09F4FCC16CEF79E1C4
:105410008FEB95E00E94ED92892B09F0F3C189E0B2
:1054200090E09093831B8093821B8091821B9091CC
:10543000831B181619060CF067C0FC01E150F04CF4
:10544000EE0FFF1FEE0FFF1FE60DF71D408151818C
:10545000628173814483558366837783FC01E150C5
:10546000F048EE0FFF1FEE0DFF1D808191819383A9
:1054700082838091821B9091831B0197D2CF8DE014
:10548000381609F431CF36CF211127C01A8219827C
:10549000A114B10409F432C28E010F5F1F4F9201B3
:1054A000A50162E871E0C4011FDE8823E1F0D401A8
:1054B00051962C9220928A1A8091771B9091781B9A
:1054C000A091791BB0917A1B8093851A9093861ACC
:1054D000A093871AB093881A71CF2C32C9F6EFEFD8
:1054E000AE1ABE0AD3CF8E010F5F1F4F9201A501E6
:1054F00066E871E0C401F8DD882309F45FCFF401A8
:10550000218A2092891AD8CF82EF99E10E94C59210
:10551000D3016D937D938D939C93139786E09AE1CD
:105520000E94C892F701918380838836914038F0B9
:10553000D70112968D919C9113978D939C9367ED53
:105540007BE081E69EE10E94030263EC75E081E668
:105550009EE10E94FA01F401618970E081E69EE11A
:105560000E94FB0162ED75E081E69EE10E94FA0176
:105570006091891A70E081E69EE10E94FB0160EE75
:1055800075E081E69EE10E94FA0160918A1A70E05E
:1055900081E69EE10E942B0267ED7BE081E69EE1C1
:1055A0000E940302D6018D919C9164E170E00E94FB
:1055B0006E92F601718360836EEE75E081E69EE186
:1055C0000E94FA01D6016D917C9181E69EE10E94D4
:1055D0002B02F70100811181D6018D919C91081B4E
:1055E000190B68E176E081E69EE10E94FA01B801BC
:1055F00081E69EE10E94FB01053B11050CF470C1A0
:1056000008561140C8010597059710F40AE010E00C
:10561000C8010996059710F406EF1FEF60E276E0E7
:1056200081E69EE10E94FA01B80181E69EE10E94B6
:10563000FB01C8016AE070E00E946E92F601808171
:105640009181680F791F6836F1E07F070CF050C137
:10565000D6016D937C93D6018D919C91119797FF04
:1056600004C088599E4F8D939C9368E276E081E652
:105670009EE10E94FA0166ED7BE081E69EE10E94D8
:10568000FA01F7016081718181E69EE10E94FB01D0
:105690006BE678E081E69EE10E94FA016CEF79E129
:1056A00081E69EE10E94FA016BE678E081E69EE1E8
:1056B0000E94FA01D6016D917C9181E69EE10E94E3
:1056C000FB016BE678E081E69EE10E94FA01F301BE
:1056D000408151816281738122E030E081E69EE168
:1056E0000E94010264E576E081E69EE10E94FA01F3
:1056F00066ED7BE081E69EE10E94FA01D7016D91A3
:105700007C9181E69EE10E94FB016BE678E081E6F8
:105710009EE10E94FA01F6016081718181E69EE1BD
:105720000E94FB016BE678E081E69EE10E94FA01AF
:10573000D3014D915D916D917C9122E030E081E645
:105740009EE10E9401026BE678E081E69EE10E9404
:10575000FA01F6018081918114E1189FB001199F2F
:10576000700D112481E69EE10E94FB0167ED7BE054
:1057700081E69EE10E940302D6012D913C91119792
:10578000129FC001139F900D11248D939C938091C3
:10579000771B9091781BA091791BB0917A1B409157
:1057A000851A5091861A6091871A7091881A841B05
:1057B000950BA60BB70B89389341A105B10538F0BD
:1057C0001092AF191092AE19D40151961C921092FA
:1057D000891A10928A1AF40181890F900F90DF9133
:1057E000CF911F910F91FF90EF90DF90CF90BF90DE
:1057F000AF909F908F907F906F905F904F903F9071
:105800002F90089566E871E080E19AE10E94059387
:10581000892B09F494CE89E090E09093831B8093C8
:10582000821B8091821B9091831B1816190614F518
:10583000FC01E150F04CEE0FFF1FEE0FFF1FE60DD5
:10584000F71D408151816281738144835583668352
:105850007783FC01E150F048EE0FFF1FEE0DFF1DB6
:1058600080819181938382838091821B9091831B9D
:105870000197D3CF82EF99E10E94C592F301608333
:1058800071838283938386E09AE10E94C892D70154
:105890008D939C938C549F4F8936914028F0F7014B
:1058A00082819381918380836CEF79E181EC95E033
:1058B0000E94ED92892B09F042CED7012D913C91A7
:1058C00088E691E0821B930B8836B1E09B0721F0BC
:1058D000F7019183808333CED7011D921C922FCE86
:1058E0000C34BFEF1B070CF08DCE08591E4F8ACE2B
:1058F00068567140F60171836083ADCE89819A81CB
:10590000FC01E05FF54E208301969A838983805FD6
:10591000954EDC011C9252CDCF92DF92EF92FF9216
:10592000E0911003F0911103FF270E94D685E091CA
:105930000E03F0910F03FF270E94D685E0910C0320
:10594000F0910D03FF270E94D685E0910A03F091A4
:105950000B03FF270E94D6856B01770FEE08FF0827
:10596000C701B6010E94FA87E0911003F09111037C
:10597000FF270E94D085E0910E03F0910F03FF27CF
:105980000E94D085E0910C03F0910D03FF270E9447
:10599000D085E0910A03F0910B03FF270E94D08588
:1059A000C701B6010E94FA87E0911003F09111033C
:1059B000FF270E94D685E0910E03F0910F03FF2789
:1059C0000E94D685E0910C03F0910D03FF270E9401
:1059D000D685E0910A03F0910B03FF270E94D6853C
:1059E000C701B601FF90EF90DF90CF900C94FA873B
:1059F000E0911003F0911103FF270E94D685E091FA
:105A00000E03F0910F03FF270E94D685E0910C034F
:105A1000F0910D03FF270E94D685E0910A03F091D3
:105A20000B03FF270E94D685072E000C880B990BCD
:105A30000C94FA870F931F93FB01FF270091BE1C64
:105A40001091BF1C2091C01C3091C11C8091771B0C
:105A50009091781BA091791BB0917A1B08171907B8
:105A60002A073B0758F04130510529F40E94D6859A
:105A70001F910F9108950E94D085FACF042E0E94A5
:105A8000CD85F6CF4F925F926F927F92AF92BF9289
:105A9000CF92DF92EF92FF920F93CF93DF93EC01BF
:105AA0006B015A0179010FB6F8944090E11D5090B6
:105AB000E21D6090E31D7090E41D0FBE8C859D85F6
:105AC00068177907BCF469E876E081E69EE10E94F8
:105AD000FA01B60181E69EE10E94FB0166ED7BE0E2
